{
  "contractName": "Certy",
  "abi": [
    {
      "inputs": [],
      "stateMutability": "nonpayable",
      "type": "constructor"
    },
    {
      "inputs": [
        {
          "internalType": "bytes32",
          "name": "",
          "type": "bytes32"
        }
      ],
      "name": "Certificates",
      "outputs": [
        {
          "internalType": "bytes32",
          "name": "cid",
          "type": "bytes32"
        },
        {
          "internalType": "string",
          "name": "holderName",
          "type": "string"
        },
        {
          "internalType": "string",
          "name": "issuerName",
          "type": "string"
        },
        {
          "internalType": "uint256",
          "name": "timestamp",
          "type": "uint256"
        },
        {
          "internalType": "string",
          "name": "program",
          "type": "string"
        },
        {
          "internalType": "bool",
          "name": "exist",
          "type": "bool"
        }
      ],
      "stateMutability": "view",
      "type": "function",
      "constant": true
    },
    {
      "inputs": [
        {
          "internalType": "address",
          "name": "_issuerAddress",
          "type": "address"
        },
        {
          "internalType": "string",
          "name": "_issuerId",
          "type": "string"
        }
      ],
      "name": "addIssuer",
      "outputs": [],
      "stateMutability": "nonpayable",
      "type": "function"
    },
    {
      "inputs": [
        {
          "internalType": "string",
          "name": "cid",
          "type": "string"
        },
        {
          "internalType": "string",
          "name": "_holderName",
          "type": "string"
        },
        {
          "internalType": "string",
          "name": "_issuerName",
          "type": "string"
        },
        {
          "internalType": "string",
          "name": "_program",
          "type": "string"
        }
      ],
      "name": "storeCertificate",
      "outputs": [],
      "stateMutability": "nonpayable",
      "type": "function"
    },
    {
      "inputs": [
        {
          "internalType": "string",
          "name": "cid",
          "type": "string"
        }
      ],
      "name": "getCertificate",
      "outputs": [
        {
          "components": [
            {
              "internalType": "bytes32",
              "name": "cid",
              "type": "bytes32"
            },
            {
              "internalType": "string",
              "name": "holderName",
              "type": "string"
            },
            {
              "internalType": "string",
              "name": "issuerName",
              "type": "string"
            },
            {
              "internalType": "uint256",
              "name": "timestamp",
              "type": "uint256"
            },
            {
              "internalType": "string",
              "name": "program",
              "type": "string"
            },
            {
              "internalType": "bool",
              "name": "exist",
              "type": "bool"
            }
          ],
          "internalType": "struct Certy.Certificate",
          "name": "",
          "type": "tuple"
        }
      ],
      "stateMutability": "view",
      "type": "function",
      "constant": true
    },
    {
      "inputs": [
        {
          "internalType": "string",
          "name": "cid",
          "type": "string"
        }
      ],
      "name": "check",
      "outputs": [
        {
          "internalType": "bool",
          "name": "",
          "type": "bool"
        }
      ],
      "stateMutability": "view",
      "type": "function",
      "constant": true
    },
    {
      "inputs": [
        {
          "internalType": "address",
          "name": "_issuerAddress",
          "type": "address"
        }
      ],
      "name": "returnIssuers",
      "outputs": [
        {
          "components": [
            {
              "internalType": "address",
              "name": "issuerAddress",
              "type": "address"
            },
            {
              "internalType": "string",
              "name": "id",
              "type": "string"
            },
            {
              "internalType": "bool",
              "name": "exists",
              "type": "bool"
            }
          ],
          "internalType": "struct Certy.Issuer",
          "name": "",
          "type": "tuple"
        }
      ],
      "stateMutability": "view",
      "type": "function",
      "constant": true
    },
    {
      "inputs": [],
      "name": "returnAddress",
      "outputs": [
        {
          "internalType": "address",
          "name": "",
          "type": "address"
        }
      ],
      "stateMutability": "view",
      "type": "function",
      "constant": true
    }
  ],
  "bytecode": "0x608060405234801561001057600080fd5b5060018060003373ffffffffffffffffffffffffffffffffffffffff1673ffffffffffffffffffffffffffffffffffffffff16815260200190815260200160002060006101000a81548160ff021916908315150217905550611779806100776000396000f3fe608060405234801561001057600080fd5b506004361061007d5760003560e01c8063b6f921ad1161005b578063b6f921ad146100d8578063c0bec9a914610108578063dfa035ed1461013d578063ed0f2e751461016d5761007d565b8063307d40ab146100825780638fc0859a1461009e578063943640c3146100ba575b600080fd5b61009c60048036038101906100979190610d36565b61019d565b005b6100b860048036038101906100b39190610e6b565b610399565b005b6100c261055c565b6040516100cf9190610ed6565b60405180910390f35b6100f260048036038101906100ed9190610ef1565b610564565b6040516100ff9190610f55565b60405180910390f35b610122600480360381019061011d9190610fa6565b6105bb565b6040516101349695949392919061107a565b60405180910390f35b610157600480360381019061015291906110f0565b61079c565b60405161016491906111d5565b60405180910390f35b61018760048036038101906101829190610ef1565b6108f8565b60405161019491906112ac565b60405180910390f35b60011515600260003373ffffffffffffffffffffffffffffffffffffffff1673ffffffffffffffffffffffffffffffffffffffff16815260200190815260200160002060020160009054906101000a900460ff16151514610233576040517f08c379a000000000000000000000000000000000000000000000000000000000815260040161022a9061131a565b60405180910390fd5b6000846040516020016102469190611376565b6040516020818303038152906040528051906020012090506000151560008083815260200190815260200160002060050160009054906101000a900460ff161515146102c7576040517f08c379a00000000000000000000000000000000000000000000000000000000081526004016102be906113d9565b60405180910390fd5b80600080838152602001908152602001600020600001819055508360008083815260200190815260200160002060010190816103039190611605565b508260008083815260200190815260200160002060020190816103269190611605565b508160008083815260200190815260200160002060040190816103499190611605565b504260008083815260200190815260200160002060030181905550600160008083815260200190815260200160002060050160006101000a81548160ff0219169083151502179055505050505050565b60011515600160003373ffffffffffffffffffffffffffffffffffffffff1673ffffffffffffffffffffffffffffffffffffffff16815260200190815260200160002060009054906101000a900460ff1615151461042c576040517f08c379a000000000000000000000000000000000000000000000000000000000815260040161042390611723565b60405180910390fd5b81600260008473ffffffffffffffffffffffffffffffffffffffff1673ffffffffffffffffffffffffffffffffffffffff16815260200190815260200160002060000160006101000a81548173ffffffffffffffffffffffffffffffffffffffff021916908373ffffffffffffffffffffffffffffffffffffffff16021790555080600260008473ffffffffffffffffffffffffffffffffffffffff1673ffffffffffffffffffffffffffffffffffffffff16815260200190815260200160002060010190816104fc9190611605565b506001600260008473ffffffffffffffffffffffffffffffffffffffff1673ffffffffffffffffffffffffffffffffffffffff16815260200190815260200160002060020160006101000a81548160ff0219169083151502179055505050565b600033905090565b600080826040516020016105789190611376565b60405160208183030381529060405280519060200120905060008082815260200190815260200160002060050160009054906101000a900460ff16915050919050565b60006020528060005260406000206000915090508060000154908060010180546105e490611428565b80601f016020809104026020016040519081016040528092919081815260200182805461061090611428565b801561065d5780601f106106325761010080835404028352916020019161065d565b820191906000526020600020905b81548152906001019060200180831161064057829003601f168201915b50505050509080600201805461067290611428565b80601f016020809104026020016040519081016040528092919081815260200182805461069e90611428565b80156106eb5780601f106106c0576101008083540402835291602001916106eb565b820191906000526020600020905b8154815290600101906020018083116106ce57829003601f168201915b50505050509080600301549080600401805461070690611428565b80601f016020809104026020016040519081016040528092919081815260200182805461073290611428565b801561077f5780601f106107545761010080835404028352916020019161077f565b820191906000526020600020905b81548152906001019060200180831161076257829003601f168201915b5050505050908060050160009054906101000a900460ff16905086565b6107a4610b68565b600260008373ffffffffffffffffffffffffffffffffffffffff1673ffffffffffffffffffffffffffffffffffffffff1681526020019081526020016000206040518060600160405290816000820160009054906101000a900473ffffffffffffffffffffffffffffffffffffffff1673ffffffffffffffffffffffffffffffffffffffff1673ffffffffffffffffffffffffffffffffffffffff16815260200160018201805461085490611428565b80601f016020809104026020016040519081016040528092919081815260200182805461088090611428565b80156108cd5780601f106108a2576101008083540402835291602001916108cd565b820191906000526020600020905b8154815290600101906020018083116108b057829003601f168201915b505050505081526020016002820160009054906101000a900460ff1615151515815250509050919050565b610900610ba1565b6000826040516020016109139190611376565b6040516020818303038152906040528051906020012090506001151560008083815260200190815260200160002060050160009054906101000a900460ff1615151461095e57600080fd5b6000808281526020019081526020016000206040518060c00160405290816000820154815260200160018201805461099590611428565b80601f01602080910402602001604051908101604052809291908181526020018280546109c190611428565b8015610a0e5780601f106109e357610100808354040283529160200191610a0e565b820191906000526020600020905b8154815290600101906020018083116109f157829003601f168201915b50505050508152602001600282018054610a2790611428565b80601f0160208091040260200160405190810160405280929190818152602001828054610a5390611428565b8015610aa05780601f10610a7557610100808354040283529160200191610aa0565b820191906000526020600020905b815481529060010190602001808311610a8357829003601f168201915b5050505050815260200160038201548152602001600482018054610ac390611428565b80601f0160208091040260200160405190810160405280929190818152602001828054610aef90611428565b8015610b3c5780601f10610b1157610100808354040283529160200191610b3c565b820191906000526020600020905b815481529060010190602001808311610b1f57829003601f168201915b505050505081526020016005820160009054906101000a900460ff161515151581525050915050919050565b6040518060600160405280600073ffffffffffffffffffffffffffffffffffffffff168152602001606081526020016000151581525090565b6040518060c0016040528060008019168152602001606081526020016060815260200160008152602001606081526020016000151581525090565b6000604051905090565b600080fd5b600080fd5b600080fd5b600080fd5b6000601f19601f8301169050919050565b7f4e487b7100000000000000000000000000000000000000000000000000000000600052604160045260246000fd5b610c4382610bfa565b810181811067ffffffffffffffff82111715610c6257610c61610c0b565b5b80604052505050565b6000610c75610bdc565b9050610c818282610c3a565b919050565b600067ffffffffffffffff821115610ca157610ca0610c0b565b5b610caa82610bfa565b9050602081019050919050565b82818337600083830152505050565b6000610cd9610cd484610c86565b610c6b565b905082815260208101848484011115610cf557610cf4610bf5565b5b610d00848285610cb7565b509392505050565b600082601f830112610d1d57610d1c610bf0565b5b8135610d2d848260208601610cc6565b91505092915050565b60008060008060808587031215610d5057610d4f610be6565b5b600085013567ffffffffffffffff811115610d6e57610d6d610beb565b5b610d7a87828801610d08565b945050602085013567ffffffffffffffff811115610d9b57610d9a610beb565b5b610da787828801610d08565b935050604085013567ffffffffffffffff811115610dc857610dc7610beb565b5b610dd487828801610d08565b925050606085013567ffffffffffffffff811115610df557610df4610beb565b5b610e0187828801610d08565b91505092959194509250565b600073ffffffffffffffffffffffffffffffffffffffff82169050919050565b6000610e3882610e0d565b9050919050565b610e4881610e2d565b8114610e5357600080fd5b50565b600081359050610e6581610e3f565b92915050565b60008060408385031215610e8257610e81610be6565b5b6000610e9085828601610e56565b925050602083013567ffffffffffffffff811115610eb157610eb0610beb565b5b610ebd85828601610d08565b9150509250929050565b610ed081610e2d565b82525050565b6000602082019050610eeb6000830184610ec7565b92915050565b600060208284031215610f0757610f06610be6565b5b600082013567ffffffffffffffff811115610f2557610f24610beb565b5b610f3184828501610d08565b91505092915050565b60008115159050919050565b610f4f81610f3a565b82525050565b6000602082019050610f6a6000830184610f46565b92915050565b6000819050919050565b610f8381610f70565b8114610f8e57600080fd5b50565b600081359050610fa081610f7a565b92915050565b600060208284031215610fbc57610fbb610be6565b5b6000610fca84828501610f91565b91505092915050565b610fdc81610f70565b82525050565b600081519050919050565b600082825260208201905092915050565b60005b8381101561101c578082015181840152602081019050611001565b60008484015250505050565b600061103382610fe2565b61103d8185610fed565b935061104d818560208601610ffe565b61105681610bfa565b840191505092915050565b6000819050919050565b61107481611061565b82525050565b600060c08201905061108f6000830189610fd3565b81810360208301526110a18188611028565b905081810360408301526110b58187611028565b90506110c4606083018661106b565b81810360808301526110d68185611028565b90506110e560a0830184610f46565b979650505050505050565b60006020828403121561110657611105610be6565b5b600061111484828501610e56565b91505092915050565b61112681610e2d565b82525050565b600082825260208201905092915050565b600061114882610fe2565b611152818561112c565b9350611162818560208601610ffe565b61116b81610bfa565b840191505092915050565b61117f81610f3a565b82525050565b600060608301600083015161119d600086018261111d565b50602083015184820360208601526111b5828261113d565b91505060408301516111ca6040860182611176565b508091505092915050565b600060208201905081810360008301526111ef8184611185565b905092915050565b61120081610f70565b82525050565b61120f81611061565b82525050565b600060c08301600083015161122d60008601826111f7565b5060208301518482036020860152611245828261113d565b9150506040830151848203604086015261125f828261113d565b91505060608301516112746060860182611206565b506080830151848203608086015261128c828261113d565b91505060a08301516112a160a0860182611176565b508091505092915050565b600060208201905081810360008301526112c68184611215565b905092915050565b7f4e6f742049737375657200000000000000000000000000000000000000000000600082015250565b6000611304600a83610fed565b915061130f826112ce565b602082019050919050565b60006020820190508181036000830152611333816112f7565b9050919050565b600081905092915050565b600061135082610fe2565b61135a818561133a565b935061136a818560208601610ffe565b80840191505092915050565b60006113828284611345565b915081905092915050565b7f54686520436572746966696361746520616c7265616479206578697374732e00600082015250565b60006113c3601f83610fed565b91506113ce8261138d565b602082019050919050565b600060208201905081810360008301526113f2816113b6565b9050919050565b7f4e487b7100000000000000000000000000000000000000000000000000000000600052602260045260246000fd5b6000600282049050600182168061144057607f821691505b602082108103611453576114526113f9565b5b50919050565b60008190508160005260206000209050919050565b60006020601f8301049050919050565b600082821b905092915050565b6000600883026114bb7fffffffffffffffffffffffffffffffffffffffffffffffffffffffffffffffff8261147e565b6114c5868361147e565b95508019841693508086168417925050509392505050565b6000819050919050565b60006115026114fd6114f884611061565b6114dd565b611061565b9050919050565b6000819050919050565b61151c836114e7565b61153061152882611509565b84845461148b565b825550505050565b600090565b611545611538565b611550818484611513565b505050565b5b818110156115745761156960008261153d565b600181019050611556565b5050565b601f8211156115b95761158a81611459565b6115938461146e565b810160208510156115a2578190505b6115b66115ae8561146e565b830182611555565b50505b505050565b600082821c905092915050565b60006115dc600019846008026115be565b1980831691505092915050565b60006115f583836115cb565b9150826002028217905092915050565b61160e82610fe2565b67ffffffffffffffff81111561162757611626610c0b565b5b6116318254611428565b61163c828285611578565b600060209050601f83116001811461166f576000841561165d578287015190505b61166785826115e9565b8655506116cf565b601f19841661167d86611459565b60005b828110156116a557848901518255600182019150602085019450602081019050611680565b868310156116c257848901516116be601f8916826115cb565b8355505b6001600288020188555050505b505050505050565b7f4e6f742041646d696e0000000000000000000000000000000000000000000000600082015250565b600061170d600983610fed565b9150611718826116d7565b602082019050919050565b6000602082019050818103600083015261173c81611700565b905091905056fea2646970667358221220b9674efbd3d32147f8e6ac244780384d33b674ebcc7da02816f2d628580c3ae464736f6c63430008120033",
  "immutableReferences": {},
  "source": "// SPDX-License-Identifier: GPL-3.0\r\npragma solidity ^0.8.0;\r\n\r\ncontract Certy {\r\n    constructor() {\r\n        admins[msg.sender] = true;\r\n    }\r\n\r\n    struct Issuer {\r\n        address issuerAddress;\r\n        string id;\r\n        bool exists;\r\n    }\r\n\r\n    struct Certificate {\r\n        bytes32 cid;\r\n        string holderName;\r\n        string issuerName;\r\n        uint timestamp;\r\n        string program;\r\n        bool exist;\r\n    }\r\n\r\n    //mapping\r\n    mapping(bytes32 => Certificate) public Certificates;\r\n    mapping(address => bool) admins;\r\n    mapping(address => Issuer) issuers;\r\n\r\n    //modifiers\r\n    modifier onlyAdmin() {\r\n        require(admins[msg.sender] == true, \"Not Admin\");\r\n        _;\r\n    }\r\n    modifier onlyIssuer() {\r\n        require(issuers[msg.sender].exists == true, \"Not Issuer\");\r\n        _;\r\n    }\r\n\r\n    //function\r\n\r\n    //function to add an issuer\r\n    function addIssuer(\r\n        address _issuerAddress,\r\n        string memory _issuerId\r\n    ) public onlyAdmin {\r\n        issuers[_issuerAddress].issuerAddress = _issuerAddress;\r\n        issuers[_issuerAddress].id = _issuerId;\r\n        issuers[_issuerAddress].exists = true;\r\n    }\r\n\r\n    //Stores Certificate CID and details.\r\n    function storeCertificate(\r\n        string memory cid,\r\n        string memory _holderName,\r\n        string memory _issuerName,\r\n        string memory _program\r\n    ) public onlyIssuer {\r\n        bytes32 _cid = keccak256(abi.encodePacked(cid));\r\n        require(\r\n            Certificates[_cid].exist == false,\r\n            \"The Certificate already exists.\"\r\n        );\r\n        Certificates[_cid].cid = _cid;\r\n        Certificates[_cid].holderName = _holderName;\r\n        Certificates[_cid].issuerName = _issuerName;\r\n        Certificates[_cid].program = _program;\r\n        Certificates[_cid].timestamp = block.timestamp;\r\n        Certificates[_cid].exist = true;\r\n    }\r\n\r\n    //Get Certificate details from cid\r\n    function getCertificate(\r\n        string memory cid\r\n    ) public view returns (Certificate memory) {\r\n        bytes32 _cid = keccak256(abi.encodePacked(cid));\r\n        require(Certificates[_cid].exist == true);\r\n        return Certificates[_cid];\r\n    }\r\n\r\n    //checks if the certificate with given cid exists or not\r\n    function check(string memory cid) public view returns (bool) {\r\n        bytes32 _cid = keccak256(abi.encodePacked(cid));\r\n        return Certificates[_cid].exist;\r\n    }\r\n\r\n    //Only for Test\r\n\r\n    function returnIssuers(\r\n        address _issuerAddress\r\n    ) public view returns (Issuer memory) {\r\n        return issuers[_issuerAddress];\r\n    }\r\n\r\n    function returnAddress() public view returns (address) {\r\n        return msg.sender;\r\n    }\r\n}\r\n",
  "sourcePath": "D:\\niischal\\certy\\contracts\\Certy.sol",
  "compiler": {
    "name": "solc",
    "version": "0.8.18+commit.87f61d96.Emscripten.clang"
  },
  "schemaVersion": "3.4.10",
  "updatedAt": "2023-02-12T15:26:41.176Z",
  "networkType": "ethereum",
  "devdoc": {
    "kind": "dev",
    "methods": {},
    "version": 1
  },
  "userdoc": {
    "kind": "user",
    "methods": {},
    "version": 1
  }
}