{
  "contractName": "Certy",
  "abi": [
    {
      "inputs": [],
      "stateMutability": "nonpayable",
      "type": "constructor"
    },
    {
      "inputs": [
        {
          "internalType": "bytes32",
          "name": "",
          "type": "bytes32"
        }
      ],
      "name": "Certificates",
      "outputs": [
        {
          "internalType": "bytes32",
          "name": "cid",
          "type": "bytes32"
        },
        {
          "internalType": "string",
          "name": "holderName",
          "type": "string"
        },
        {
          "internalType": "string",
          "name": "issuerName",
          "type": "string"
        },
        {
          "internalType": "string",
          "name": "timestamp",
          "type": "string"
        },
        {
          "internalType": "string",
          "name": "program",
          "type": "string"
        },
        {
          "internalType": "bool",
          "name": "exist",
          "type": "bool"
        }
      ],
      "stateMutability": "view",
      "type": "function",
      "constant": true
    },
    {
      "inputs": [
        {
          "internalType": "address",
          "name": "_issuerAddress",
          "type": "address"
        },
        {
          "internalType": "string",
          "name": "_issuerId",
          "type": "string"
        }
      ],
      "name": "addIssuer",
      "outputs": [],
      "stateMutability": "nonpayable",
      "type": "function"
    },
    {
      "inputs": [
        {
          "internalType": "string",
          "name": "cid",
          "type": "string"
        },
        {
          "internalType": "string",
          "name": "_holderName",
          "type": "string"
        },
        {
          "internalType": "string",
          "name": "_issuerName",
          "type": "string"
        },
        {
          "internalType": "string",
          "name": "_program",
          "type": "string"
        },
        {
          "internalType": "string",
          "name": "_issuedDate",
          "type": "string"
        }
      ],
      "name": "storeCertificate",
      "outputs": [],
      "stateMutability": "nonpayable",
      "type": "function"
    },
    {
      "inputs": [
        {
          "internalType": "string",
          "name": "cid",
          "type": "string"
        }
      ],
      "name": "getCertificate",
      "outputs": [
        {
          "components": [
            {
              "internalType": "bytes32",
              "name": "cid",
              "type": "bytes32"
            },
            {
              "internalType": "string",
              "name": "holderName",
              "type": "string"
            },
            {
              "internalType": "string",
              "name": "issuerName",
              "type": "string"
            },
            {
              "internalType": "string",
              "name": "timestamp",
              "type": "string"
            },
            {
              "internalType": "string",
              "name": "program",
              "type": "string"
            },
            {
              "internalType": "bool",
              "name": "exist",
              "type": "bool"
            }
          ],
          "internalType": "struct Certy.Certificate",
          "name": "",
          "type": "tuple"
        }
      ],
      "stateMutability": "view",
      "type": "function",
      "constant": true
    },
    {
      "inputs": [
        {
          "internalType": "string",
          "name": "cid",
          "type": "string"
        }
      ],
      "name": "check",
      "outputs": [
        {
          "internalType": "bool",
          "name": "",
          "type": "bool"
        }
      ],
      "stateMutability": "view",
      "type": "function",
      "constant": true
    },
    {
      "inputs": [
        {
          "internalType": "address",
          "name": "_issuerAddress",
          "type": "address"
        }
      ],
      "name": "returnIssuers",
      "outputs": [
        {
          "components": [
            {
              "internalType": "address",
              "name": "issuerAddress",
              "type": "address"
            },
            {
              "internalType": "string",
              "name": "id",
              "type": "string"
            },
            {
              "internalType": "bool",
              "name": "exists",
              "type": "bool"
            }
          ],
          "internalType": "struct Certy.Issuer",
          "name": "",
          "type": "tuple"
        }
      ],
      "stateMutability": "view",
      "type": "function",
      "constant": true
    },
    {
      "inputs": [],
      "name": "returnAddress",
      "outputs": [
        {
          "internalType": "address",
          "name": "",
          "type": "address"
        }
      ],
      "stateMutability": "view",
      "type": "function",
      "constant": true
    }
  ],
  "bytecode": "0x608060405234801561001057600080fd5b5060018060003373ffffffffffffffffffffffffffffffffffffffff1673ffffffffffffffffffffffffffffffffffffffff16815260200190815260200160002060006101000a81548160ff021916908315150217905550611955806100776000396000f3fe608060405234801561001057600080fd5b506004361061007d5760003560e01c8063b6f921ad1161005b578063b6f921ad146100d8578063c0bec9a914610108578063dfa035ed1461013d578063ed0f2e751461016d5761007d565b80637970acf5146100825780638fc0859a1461009e578063943640c3146100ba575b600080fd5b61009c60048036038101906100979190610e86565b61019d565b005b6100b860048036038101906100b39190610feb565b6103a3565b005b6100c2610566565b6040516100cf9190611056565b60405180910390f35b6100f260048036038101906100ed9190611071565b61056e565b6040516100ff91906110d5565b60405180910390f35b610122600480360381019061011d9190611126565b6105c5565b604051610134969594939291906111e1565b60405180910390f35b6101576004803603810190610152919061125e565b61082e565b6040516101649190611343565b60405180910390f35b61018760048036038101906101829190611071565b61098a565b6040516101949190611412565b60405180910390f35b60011515600260003373ffffffffffffffffffffffffffffffffffffffff1673ffffffffffffffffffffffffffffffffffffffff16815260200190815260200160002060020160009054906101000a900460ff16151514610233576040517f08c379a000000000000000000000000000000000000000000000000000000000815260040161022a90611480565b60405180910390fd5b60008560405160200161024691906114dc565b6040516020818303038152906040528051906020012090506000151560008083815260200190815260200160002060050160009054906101000a900460ff161515146102c7576040517f08c379a00000000000000000000000000000000000000000000000000000000081526004016102be9061153f565b60405180910390fd5b80600080838152602001908152602001600020600001819055508460008083815260200190815260200160002060010190816103039190611775565b508360008083815260200190815260200160002060020190816103269190611775565b508260008083815260200190815260200160002060040190816103499190611775565b5081600080838152602001908152602001600020600301908161036c9190611775565b50600160008083815260200190815260200160002060050160006101000a81548160ff021916908315150217905550505050505050565b60011515600160003373ffffffffffffffffffffffffffffffffffffffff1673ffffffffffffffffffffffffffffffffffffffff16815260200190815260200160002060009054906101000a900460ff16151514610436576040517f08c379a000000000000000000000000000000000000000000000000000000000815260040161042d90611893565b60405180910390fd5b81600260008473ffffffffffffffffffffffffffffffffffffffff1673ffffffffffffffffffffffffffffffffffffffff16815260200190815260200160002060000160006101000a81548173ffffffffffffffffffffffffffffffffffffffff021916908373ffffffffffffffffffffffffffffffffffffffff16021790555080600260008473ffffffffffffffffffffffffffffffffffffffff1673ffffffffffffffffffffffffffffffffffffffff16815260200190815260200160002060010190816105069190611775565b506001600260008473ffffffffffffffffffffffffffffffffffffffff1673ffffffffffffffffffffffffffffffffffffffff16815260200190815260200160002060020160006101000a81548160ff0219169083151502179055505050565b600033905090565b6000808260405160200161058291906114dc565b60405160208183030381529060405280519060200120905060008082815260200190815260200160002060050160009054906101000a900460ff16915050919050565b60006020528060005260406000206000915090508060000154908060010180546105ee9061158e565b80601f016020809104026020016040519081016040528092919081815260200182805461061a9061158e565b80156106675780601f1061063c57610100808354040283529160200191610667565b820191906000526020600020905b81548152906001019060200180831161064a57829003601f168201915b50505050509080600201805461067c9061158e565b80601f01602080910402602001604051908101604052809291908181526020018280546106a89061158e565b80156106f55780601f106106ca576101008083540402835291602001916106f5565b820191906000526020600020905b8154815290600101906020018083116106d857829003601f168201915b50505050509080600301805461070a9061158e565b80601f01602080910402602001604051908101604052809291908181526020018280546107369061158e565b80156107835780601f1061075857610100808354040283529160200191610783565b820191906000526020600020905b81548152906001019060200180831161076657829003601f168201915b5050505050908060040180546107989061158e565b80601f01602080910402602001604051908101604052809291908181526020018280546107c49061158e565b80156108115780601f106107e657610100808354040283529160200191610811565b820191906000526020600020905b8154815290600101906020018083116107f457829003601f168201915b5050505050908060050160009054906101000a900460ff16905086565b610836610cb8565b600260008373ffffffffffffffffffffffffffffffffffffffff1673ffffffffffffffffffffffffffffffffffffffff1681526020019081526020016000206040518060600160405290816000820160009054906101000a900473ffffffffffffffffffffffffffffffffffffffff1673ffffffffffffffffffffffffffffffffffffffff1673ffffffffffffffffffffffffffffffffffffffff1681526020016001820180546108e69061158e565b80601f01602080910402602001604051908101604052809291908181526020018280546109129061158e565b801561095f5780601f106109345761010080835404028352916020019161095f565b820191906000526020600020905b81548152906001019060200180831161094257829003601f168201915b505050505081526020016002820160009054906101000a900460ff1615151515815250509050919050565b610992610cf1565b6000826040516020016109a591906114dc565b6040516020818303038152906040528051906020012090506001151560008083815260200190815260200160002060050160009054906101000a900460ff16151514610a26576040517f08c379a0000000000000000000000000000000000000000000000000000000008152600401610a1d906118ff565b60405180910390fd5b6000808281526020019081526020016000206040518060c001604052908160008201548152602001600182018054610a5d9061158e565b80601f0160208091040260200160405190810160405280929190818152602001828054610a899061158e565b8015610ad65780601f10610aab57610100808354040283529160200191610ad6565b820191906000526020600020905b815481529060010190602001808311610ab957829003601f168201915b50505050508152602001600282018054610aef9061158e565b80601f0160208091040260200160405190810160405280929190818152602001828054610b1b9061158e565b8015610b685780601f10610b3d57610100808354040283529160200191610b68565b820191906000526020600020905b815481529060010190602001808311610b4b57829003601f168201915b50505050508152602001600382018054610b819061158e565b80601f0160208091040260200160405190810160405280929190818152602001828054610bad9061158e565b8015610bfa5780601f10610bcf57610100808354040283529160200191610bfa565b820191906000526020600020905b815481529060010190602001808311610bdd57829003601f168201915b50505050508152602001600482018054610c139061158e565b80601f0160208091040260200160405190810160405280929190818152602001828054610c3f9061158e565b8015610c8c5780601f10610c6157610100808354040283529160200191610c8c565b820191906000526020600020905b815481529060010190602001808311610c6f57829003601f168201915b505050505081526020016005820160009054906101000a900460ff161515151581525050915050919050565b6040518060600160405280600073ffffffffffffffffffffffffffffffffffffffff168152602001606081526020016000151581525090565b6040518060c0016040528060008019168152602001606081526020016060815260200160608152602001606081526020016000151581525090565b6000604051905090565b600080fd5b600080fd5b600080fd5b600080fd5b6000601f19601f8301169050919050565b7f4e487b7100000000000000000000000000000000000000000000000000000000600052604160045260246000fd5b610d9382610d4a565b810181811067ffffffffffffffff82111715610db257610db1610d5b565b5b80604052505050565b6000610dc5610d2c565b9050610dd18282610d8a565b919050565b600067ffffffffffffffff821115610df157610df0610d5b565b5b610dfa82610d4a565b9050602081019050919050565b82818337600083830152505050565b6000610e29610e2484610dd6565b610dbb565b905082815260208101848484011115610e4557610e44610d45565b5b610e50848285610e07565b509392505050565b600082601f830112610e6d57610e6c610d40565b5b8135610e7d848260208601610e16565b91505092915050565b600080600080600060a08688031215610ea257610ea1610d36565b5b600086013567ffffffffffffffff811115610ec057610ebf610d3b565b5b610ecc88828901610e58565b955050602086013567ffffffffffffffff811115610eed57610eec610d3b565b5b610ef988828901610e58565b945050604086013567ffffffffffffffff811115610f1a57610f19610d3b565b5b610f2688828901610e58565b935050606086013567ffffffffffffffff811115610f4757610f46610d3b565b5b610f5388828901610e58565b925050608086013567ffffffffffffffff811115610f7457610f73610d3b565b5b610f8088828901610e58565b9150509295509295909350565b600073ffffffffffffffffffffffffffffffffffffffff82169050919050565b6000610fb882610f8d565b9050919050565b610fc881610fad565b8114610fd357600080fd5b50565b600081359050610fe581610fbf565b92915050565b6000806040838503121561100257611001610d36565b5b600061101085828601610fd6565b925050602083013567ffffffffffffffff81111561103157611030610d3b565b5b61103d85828601610e58565b9150509250929050565b61105081610fad565b82525050565b600060208201905061106b6000830184611047565b92915050565b60006020828403121561108757611086610d36565b5b600082013567ffffffffffffffff8111156110a5576110a4610d3b565b5b6110b184828501610e58565b91505092915050565b60008115159050919050565b6110cf816110ba565b82525050565b60006020820190506110ea60008301846110c6565b92915050565b6000819050919050565b611103816110f0565b811461110e57600080fd5b50565b600081359050611120816110fa565b92915050565b60006020828403121561113c5761113b610d36565b5b600061114a84828501611111565b91505092915050565b61115c816110f0565b82525050565b600081519050919050565b600082825260208201905092915050565b60005b8381101561119c578082015181840152602081019050611181565b60008484015250505050565b60006111b382611162565b6111bd818561116d565b93506111cd81856020860161117e565b6111d681610d4a565b840191505092915050565b600060c0820190506111f66000830189611153565b818103602083015261120881886111a8565b9050818103604083015261121c81876111a8565b9050818103606083015261123081866111a8565b9050818103608083015261124481856111a8565b905061125360a08301846110c6565b979650505050505050565b60006020828403121561127457611273610d36565b5b600061128284828501610fd6565b91505092915050565b61129481610fad565b82525050565b600082825260208201905092915050565b60006112b682611162565b6112c0818561129a565b93506112d081856020860161117e565b6112d981610d4a565b840191505092915050565b6112ed816110ba565b82525050565b600060608301600083015161130b600086018261128b565b506020830151848203602086015261132382826112ab565b915050604083015161133860408601826112e4565b508091505092915050565b6000602082019050818103600083015261135d81846112f3565b905092915050565b61136e816110f0565b82525050565b600060c08301600083015161138c6000860182611365565b50602083015184820360208601526113a482826112ab565b915050604083015184820360408601526113be82826112ab565b915050606083015184820360608601526113d882826112ab565b915050608083015184820360808601526113f282826112ab565b91505060a083015161140760a08601826112e4565b508091505092915050565b6000602082019050818103600083015261142c8184611374565b905092915050565b7f4e6f742049737375657200000000000000000000000000000000000000000000600082015250565b600061146a600a8361116d565b915061147582611434565b602082019050919050565b600060208201905081810360008301526114998161145d565b9050919050565b600081905092915050565b60006114b682611162565b6114c081856114a0565b93506114d081856020860161117e565b80840191505092915050565b60006114e882846114ab565b915081905092915050565b7f54686520436572746966696361746520616c7265616479206578697374732e00600082015250565b6000611529601f8361116d565b9150611534826114f3565b602082019050919050565b600060208201905081810360008301526115588161151c565b9050919050565b7f4e487b7100000000000000000000000000000000000000000000000000000000600052602260045260246000fd5b600060028204905060018216806115a657607f821691505b6020821081036115b9576115b861155f565b5b50919050565b60008190508160005260206000209050919050565b60006020601f8301049050919050565b600082821b905092915050565b6000600883026116217fffffffffffffffffffffffffffffffffffffffffffffffffffffffffffffffff826115e4565b61162b86836115e4565b95508019841693508086168417925050509392505050565b6000819050919050565b6000819050919050565b600061167261166d61166884611643565b61164d565b611643565b9050919050565b6000819050919050565b61168c83611657565b6116a061169882611679565b8484546115f1565b825550505050565b600090565b6116b56116a8565b6116c0818484611683565b505050565b5b818110156116e4576116d96000826116ad565b6001810190506116c6565b5050565b601f821115611729576116fa816115bf565b611703846115d4565b81016020851015611712578190505b61172661171e856115d4565b8301826116c5565b50505b505050565b600082821c905092915050565b600061174c6000198460080261172e565b1980831691505092915050565b6000611765838361173b565b9150826002028217905092915050565b61177e82611162565b67ffffffffffffffff81111561179757611796610d5b565b5b6117a1825461158e565b6117ac8282856116e8565b600060209050601f8311600181146117df57600084156117cd578287015190505b6117d78582611759565b86555061183f565b601f1984166117ed866115bf565b60005b82811015611815578489015182556001820191506020850194506020810190506117f0565b86831015611832578489015161182e601f89168261173b565b8355505b6001600288020188555050505b505050505050565b7f4e6f742041646d696e0000000000000000000000000000000000000000000000600082015250565b600061187d60098361116d565b915061188882611847565b602082019050919050565b600060208201905081810360008301526118ac81611870565b9050919050565b7f436572746966696361746520446f206e6f742045786973747300000000000000600082015250565b60006118e960198361116d565b91506118f4826118b3565b602082019050919050565b60006020820190508181036000830152611918816118dc565b905091905056fea26469706673582212205a79ff0ef130453c31d52949375fa4c72e35cc2ac5b46c870e087e8becad9bec64736f6c63430008120033",
  "immutableReferences": {},
  "source": "// SPDX-License-Identifier: GPL-3.0\r\npragma solidity ^0.8.0;\r\n\r\ncontract Certy {\r\n    constructor() {\r\n        admins[msg.sender] = true;\r\n    }\r\n\r\n    struct Issuer {\r\n        address issuerAddress;\r\n        string id;\r\n        bool exists;\r\n    }\r\n\r\n    struct Certificate {\r\n        bytes32 cid;\r\n        string holderName;\r\n        string issuerName;\r\n        string timestamp;\r\n        string program;\r\n        bool exist;\r\n    }\r\n\r\n    //mapping\r\n    mapping(bytes32 => Certificate) public Certificates;\r\n    mapping(address => bool) admins;\r\n    mapping(address => Issuer) issuers;\r\n\r\n    //modifiers\r\n    modifier onlyAdmin() {\r\n        require(admins[msg.sender] == true, \"Not Admin\");\r\n        _;\r\n    }\r\n    modifier onlyIssuer() {\r\n        require(issuers[msg.sender].exists == true, \"Not Issuer\");\r\n        _;\r\n    }\r\n\r\n    //function\r\n\r\n    //function to add an issuer\r\n    function addIssuer(\r\n        address _issuerAddress,\r\n        string memory _issuerId\r\n    ) public onlyAdmin {\r\n        issuers[_issuerAddress].issuerAddress = _issuerAddress;\r\n        issuers[_issuerAddress].id = _issuerId;\r\n        issuers[_issuerAddress].exists = true;\r\n    }\r\n\r\n    //Stores Certificate CID and details.\r\n    function storeCertificate(\r\n        string memory cid,\r\n        string memory _holderName,\r\n        string memory _issuerName,\r\n        string memory _program,\r\n        string memory _issuedDate\r\n    ) public onlyIssuer {\r\n        bytes32 _cid = keccak256(abi.encodePacked(cid));\r\n        require(\r\n            Certificates[_cid].exist == false,\r\n            \"The Certificate already exists.\"\r\n        );\r\n        Certificates[_cid].cid = _cid;\r\n        Certificates[_cid].holderName = _holderName;\r\n        Certificates[_cid].issuerName = _issuerName;\r\n        Certificates[_cid].program = _program;\r\n        Certificates[_cid].timestamp = _issuedDate;\r\n        Certificates[_cid].exist = true;\r\n    }\r\n\r\n    //Get Certificate details from cid\r\n    function getCertificate(\r\n        string memory cid\r\n    ) public view returns (Certificate memory) {\r\n        bytes32 _cid = keccak256(abi.encodePacked(cid));\r\n        require(Certificates[_cid].exist == true, \"Certificate Do not Exists\");\r\n        return Certificates[_cid];\r\n    }\r\n\r\n    //checks if the certificate with given cid exists or not\r\n    function check(string memory cid) public view returns (bool) {\r\n        bytes32 _cid = keccak256(abi.encodePacked(cid));\r\n        return Certificates[_cid].exist;\r\n    }\r\n\r\n    //Only for Test\r\n\r\n    function returnIssuers(\r\n        address _issuerAddress\r\n    ) public view returns (Issuer memory) {\r\n        return issuers[_issuerAddress];\r\n    }\r\n\r\n    function returnAddress() public view returns (address) {\r\n        return msg.sender;\r\n    }\r\n}\r\n",
  "sourcePath": "D:\\niischal\\certy\\contracts\\Certy.sol",
  "compiler": {
    "name": "solc",
    "version": "0.8.18+commit.87f61d96.Emscripten.clang"
  },
  "schemaVersion": "3.4.10",
  "updatedAt": "2023-02-15T15:20:47.332Z",
  "networkType": "ethereum",
  "devdoc": {
    "kind": "dev",
    "methods": {},
    "version": 1
  },
  "userdoc": {
    "kind": "user",
    "methods": {},
    "version": 1
  }
}