{
  "contractName": "Certy",
  "abi": [
    {
      "inputs": [],
      "stateMutability": "nonpayable",
      "type": "constructor"
    },
    {
      "inputs": [
        {
          "internalType": "bytes32",
          "name": "",
          "type": "bytes32"
        }
      ],
      "name": "Certificates",
      "outputs": [
        {
          "internalType": "bytes32",
          "name": "cid",
          "type": "bytes32"
        },
        {
          "internalType": "string",
          "name": "holderName",
          "type": "string"
        },
        {
          "internalType": "string",
          "name": "issuerName",
          "type": "string"
        },
        {
          "internalType": "uint256",
          "name": "timestamp",
          "type": "uint256"
        },
        {
          "internalType": "string",
          "name": "program",
          "type": "string"
        },
        {
          "internalType": "bool",
          "name": "exist",
          "type": "bool"
        }
      ],
      "stateMutability": "view",
      "type": "function",
      "constant": true
    },
    {
      "inputs": [
        {
          "internalType": "address",
          "name": "_issuerAddress",
          "type": "address"
        },
        {
          "internalType": "string",
          "name": "_issuerId",
          "type": "string"
        }
      ],
      "name": "addIssuer",
      "outputs": [],
      "stateMutability": "nonpayable",
      "type": "function"
    },
    {
      "inputs": [
        {
          "internalType": "string",
          "name": "cid",
          "type": "string"
        },
        {
          "internalType": "string",
          "name": "_holderName",
          "type": "string"
        },
        {
          "internalType": "string",
          "name": "_issuerName",
          "type": "string"
        },
        {
          "internalType": "string",
          "name": "_program",
          "type": "string"
        }
      ],
      "name": "storeCertificate",
      "outputs": [],
      "stateMutability": "nonpayable",
      "type": "function"
    },
    {
      "inputs": [
        {
          "internalType": "string",
          "name": "cid",
          "type": "string"
        }
      ],
      "name": "getCertificate",
      "outputs": [
        {
          "components": [
            {
              "internalType": "bytes32",
              "name": "cid",
              "type": "bytes32"
            },
            {
              "internalType": "string",
              "name": "holderName",
              "type": "string"
            },
            {
              "internalType": "string",
              "name": "issuerName",
              "type": "string"
            },
            {
              "internalType": "uint256",
              "name": "timestamp",
              "type": "uint256"
            },
            {
              "internalType": "string",
              "name": "program",
              "type": "string"
            },
            {
              "internalType": "bool",
              "name": "exist",
              "type": "bool"
            }
          ],
          "internalType": "struct Certy.Certificate",
          "name": "",
          "type": "tuple"
        }
      ],
      "stateMutability": "view",
      "type": "function",
      "constant": true
    },
    {
      "inputs": [
        {
          "internalType": "string",
          "name": "cid",
          "type": "string"
        }
      ],
      "name": "check",
      "outputs": [
        {
          "internalType": "bool",
          "name": "",
          "type": "bool"
        }
      ],
      "stateMutability": "view",
      "type": "function",
      "constant": true
    }
  ],
  "bytecode": "0x608060405234801561001057600080fd5b5060018060003373ffffffffffffffffffffffffffffffffffffffff1673ffffffffffffffffffffffffffffffffffffffff16815260200190815260200160002060006101000a81548160ff021916908315150217905550611432806100776000396000f3fe608060405234801561001057600080fd5b50600436106100575760003560e01c8063307d40ab1461005c5780638fc0859a14610078578063b6f921ad14610094578063c0bec9a9146100c4578063ed0f2e75146100f9575b600080fd5b61007660048036038101906100719190610ac7565b610129565b005b610092600480360381019061008d9190610bfc565b610322565b005b6100ae60048036038101906100a99190610c58565b61048a565b6040516100bb9190610cbc565b60405180910390f35b6100de60048036038101906100d99190610d0d565b6104e1565b6040516100f096959493929190610de1565b60405180910390f35b610113600480360381019061010e9190610c58565b6106c2565b6040516101209190610f65565b60405180910390f35b60011515600160003373ffffffffffffffffffffffffffffffffffffffff1673ffffffffffffffffffffffffffffffffffffffff16815260200190815260200160002060009054906101000a900460ff161515146101bc576040517f08c379a00000000000000000000000000000000000000000000000000000000081526004016101b390610fd3565b60405180910390fd5b6000846040516020016101cf919061102f565b6040516020818303038152906040528051906020012090506000151560008083815260200190815260200160002060050160009054906101000a900460ff16151514610250576040517f08c379a000000000000000000000000000000000000000000000000000000000815260040161024790611092565b60405180910390fd5b806000808381526020019081526020016000206000018190555083600080838152602001908152602001600020600101908161028c91906112be565b508260008083815260200190815260200160002060020190816102af91906112be565b508160008083815260200190815260200160002060040190816102d291906112be565b504260008083815260200190815260200160002060030181905550600160008083815260200190815260200160002060050160006101000a81548160ff0219169083151502179055505050505050565b60011515600160003373ffffffffffffffffffffffffffffffffffffffff1673ffffffffffffffffffffffffffffffffffffffff16815260200190815260200160002060009054906101000a900460ff161515146103b5576040517f08c379a00000000000000000000000000000000000000000000000000000000081526004016103ac906113dc565b60405180910390fd5b81600260008473ffffffffffffffffffffffffffffffffffffffff1673ffffffffffffffffffffffffffffffffffffffff16815260200190815260200160002060000160006101000a81548173ffffffffffffffffffffffffffffffffffffffff021916908373ffffffffffffffffffffffffffffffffffffffff16021790555080600260008473ffffffffffffffffffffffffffffffffffffffff1673ffffffffffffffffffffffffffffffffffffffff168152602001908152602001600020600101908161048591906112be565b505050565b6000808260405160200161049e919061102f565b60405160208183030381529060405280519060200120905060008082815260200190815260200160002060050160009054906101000a900460ff16915050919050565b600060205280600052604060002060009150905080600001549080600101805461050a906110e1565b80601f0160208091040260200160405190810160405280929190818152602001828054610536906110e1565b80156105835780601f1061055857610100808354040283529160200191610583565b820191906000526020600020905b81548152906001019060200180831161056657829003601f168201915b505050505090806002018054610598906110e1565b80601f01602080910402602001604051908101604052809291908181526020018280546105c4906110e1565b80156106115780601f106105e657610100808354040283529160200191610611565b820191906000526020600020905b8154815290600101906020018083116105f457829003601f168201915b50505050509080600301549080600401805461062c906110e1565b80601f0160208091040260200160405190810160405280929190818152602001828054610658906110e1565b80156106a55780601f1061067a576101008083540402835291602001916106a5565b820191906000526020600020905b81548152906001019060200180831161068857829003601f168201915b5050505050908060050160009054906101000a900460ff16905086565b6106ca610932565b6000826040516020016106dd919061102f565b6040516020818303038152906040528051906020012090506001151560008083815260200190815260200160002060050160009054906101000a900460ff1615151461072857600080fd5b6000808281526020019081526020016000206040518060c00160405290816000820154815260200160018201805461075f906110e1565b80601f016020809104026020016040519081016040528092919081815260200182805461078b906110e1565b80156107d85780601f106107ad576101008083540402835291602001916107d8565b820191906000526020600020905b8154815290600101906020018083116107bb57829003601f168201915b505050505081526020016002820180546107f1906110e1565b80601f016020809104026020016040519081016040528092919081815260200182805461081d906110e1565b801561086a5780601f1061083f5761010080835404028352916020019161086a565b820191906000526020600020905b81548152906001019060200180831161084d57829003601f168201915b505050505081526020016003820154815260200160048201805461088d906110e1565b80601f01602080910402602001604051908101604052809291908181526020018280546108b9906110e1565b80156109065780601f106108db57610100808354040283529160200191610906565b820191906000526020600020905b8154815290600101906020018083116108e957829003601f168201915b505050505081526020016005820160009054906101000a900460ff161515151581525050915050919050565b6040518060c0016040528060008019168152602001606081526020016060815260200160008152602001606081526020016000151581525090565b6000604051905090565b600080fd5b600080fd5b600080fd5b600080fd5b6000601f19601f8301169050919050565b7f4e487b7100000000000000000000000000000000000000000000000000000000600052604160045260246000fd5b6109d48261098b565b810181811067ffffffffffffffff821117156109f3576109f261099c565b5b80604052505050565b6000610a0661096d565b9050610a1282826109cb565b919050565b600067ffffffffffffffff821115610a3257610a3161099c565b5b610a3b8261098b565b9050602081019050919050565b82818337600083830152505050565b6000610a6a610a6584610a17565b6109fc565b905082815260208101848484011115610a8657610a85610986565b5b610a91848285610a48565b509392505050565b600082601f830112610aae57610aad610981565b5b8135610abe848260208601610a57565b91505092915050565b60008060008060808587031215610ae157610ae0610977565b5b600085013567ffffffffffffffff811115610aff57610afe61097c565b5b610b0b87828801610a99565b945050602085013567ffffffffffffffff811115610b2c57610b2b61097c565b5b610b3887828801610a99565b935050604085013567ffffffffffffffff811115610b5957610b5861097c565b5b610b6587828801610a99565b925050606085013567ffffffffffffffff811115610b8657610b8561097c565b5b610b9287828801610a99565b91505092959194509250565b600073ffffffffffffffffffffffffffffffffffffffff82169050919050565b6000610bc982610b9e565b9050919050565b610bd981610bbe565b8114610be457600080fd5b50565b600081359050610bf681610bd0565b92915050565b60008060408385031215610c1357610c12610977565b5b6000610c2185828601610be7565b925050602083013567ffffffffffffffff811115610c4257610c4161097c565b5b610c4e85828601610a99565b9150509250929050565b600060208284031215610c6e57610c6d610977565b5b600082013567ffffffffffffffff811115610c8c57610c8b61097c565b5b610c9884828501610a99565b91505092915050565b60008115159050919050565b610cb681610ca1565b82525050565b6000602082019050610cd16000830184610cad565b92915050565b6000819050919050565b610cea81610cd7565b8114610cf557600080fd5b50565b600081359050610d0781610ce1565b92915050565b600060208284031215610d2357610d22610977565b5b6000610d3184828501610cf8565b91505092915050565b610d4381610cd7565b82525050565b600081519050919050565b600082825260208201905092915050565b60005b83811015610d83578082015181840152602081019050610d68565b60008484015250505050565b6000610d9a82610d49565b610da48185610d54565b9350610db4818560208601610d65565b610dbd8161098b565b840191505092915050565b6000819050919050565b610ddb81610dc8565b82525050565b600060c082019050610df66000830189610d3a565b8181036020830152610e088188610d8f565b90508181036040830152610e1c8187610d8f565b9050610e2b6060830186610dd2565b8181036080830152610e3d8185610d8f565b9050610e4c60a0830184610cad565b979650505050505050565b610e6081610cd7565b82525050565b600082825260208201905092915050565b6000610e8282610d49565b610e8c8185610e66565b9350610e9c818560208601610d65565b610ea58161098b565b840191505092915050565b610eb981610dc8565b82525050565b610ec881610ca1565b82525050565b600060c083016000830151610ee66000860182610e57565b5060208301518482036020860152610efe8282610e77565b91505060408301518482036040860152610f188282610e77565b9150506060830151610f2d6060860182610eb0565b5060808301518482036080860152610f458282610e77565b91505060a0830151610f5a60a0860182610ebf565b508091505092915050565b60006020820190508181036000830152610f7f8184610ece565b905092915050565b7f4e6f742049737375657200000000000000000000000000000000000000000000600082015250565b6000610fbd600a83610d54565b9150610fc882610f87565b602082019050919050565b60006020820190508181036000830152610fec81610fb0565b9050919050565b600081905092915050565b600061100982610d49565b6110138185610ff3565b9350611023818560208601610d65565b80840191505092915050565b600061103b8284610ffe565b915081905092915050565b7f54686520436572746966696361746520616c7265616479206578697374732e00600082015250565b600061107c601f83610d54565b915061108782611046565b602082019050919050565b600060208201905081810360008301526110ab8161106f565b9050919050565b7f4e487b7100000000000000000000000000000000000000000000000000000000600052602260045260246000fd5b600060028204905060018216806110f957607f821691505b60208210810361110c5761110b6110b2565b5b50919050565b60008190508160005260206000209050919050565b60006020601f8301049050919050565b600082821b905092915050565b6000600883026111747fffffffffffffffffffffffffffffffffffffffffffffffffffffffffffffffff82611137565b61117e8683611137565b95508019841693508086168417925050509392505050565b6000819050919050565b60006111bb6111b66111b184610dc8565b611196565b610dc8565b9050919050565b6000819050919050565b6111d5836111a0565b6111e96111e1826111c2565b848454611144565b825550505050565b600090565b6111fe6111f1565b6112098184846111cc565b505050565b5b8181101561122d576112226000826111f6565b60018101905061120f565b5050565b601f8211156112725761124381611112565b61124c84611127565b8101602085101561125b578190505b61126f61126785611127565b83018261120e565b50505b505050565b600082821c905092915050565b600061129560001984600802611277565b1980831691505092915050565b60006112ae8383611284565b9150826002028217905092915050565b6112c782610d49565b67ffffffffffffffff8111156112e0576112df61099c565b5b6112ea82546110e1565b6112f5828285611231565b600060209050601f8311600181146113285760008415611316578287015190505b61132085826112a2565b865550611388565b601f19841661133686611112565b60005b8281101561135e57848901518255600182019150602085019450602081019050611339565b8683101561137b5784890151611377601f891682611284565b8355505b6001600288020188555050505b505050505050565b7f4e6f742041646d696e0000000000000000000000000000000000000000000000600082015250565b60006113c6600983610d54565b91506113d182611390565b602082019050919050565b600060208201905081810360008301526113f5816113b9565b905091905056fea2646970667358221220dfb27a18bfc4bb193b5693aaae4fa7570c45a77b6e58eb9d1b53ea428753c0ec64736f6c63430008110033",
  "immutableReferences": {},
  "source": "// SPDX-License-Identifier: GPL-3.0\r\npragma solidity ^0.8.0;\r\n\r\ncontract Certy{\r\n\r\n    constructor() {\r\n        admins[msg.sender] = true;\r\n    }\r\n\r\n    struct Issuer{\r\n        address issuerAddress;\r\n        string id;\r\n    }\r\n\r\n    struct Certificate{\r\n        bytes32 cid;\r\n        string holderName;\r\n        string issuerName;\r\n        uint timestamp;\r\n        string program;\r\n        bool exist;\r\n    }\r\n\r\n    //mapping\r\n    mapping(bytes32 => Certificate) public Certificates;\r\n    mapping(address => bool) admins;\r\n    mapping(address => Issuer) issuers;\r\n\r\n    //modifiers\r\n    modifier onlyAdmin() {\r\n        require(admins[msg.sender] == true, \"Not Admin\");\r\n        _;\r\n    }\r\n    modifier onlyIssuer() {\r\n        require(admins[msg.sender] == true, \"Not Issuer\");\r\n        _;\r\n    }\r\n\r\n\r\n    //function\r\n\r\n    //function to add an issuer\r\n    function addIssuer(address _issuerAddress, string memory _issuerId) public onlyAdmin{\r\n        issuers[_issuerAddress].issuerAddress =  _issuerAddress;\r\n        issuers[ _issuerAddress].id = _issuerId;\r\n    }\r\n\r\n    //Stores Certificate CID and details.\r\n    function storeCertificate(string memory cid, string memory _holderName, string memory _issuerName, string memory _program) public onlyIssuer{\r\n        bytes32 _cid=keccak256(abi.encodePacked(cid));\r\n        require(Certificates[_cid].exist == false, \"The Certificate already exists.\");\r\n        Certificates[_cid].cid = _cid;\r\n        Certificates[_cid].holderName = _holderName;\r\n        Certificates[_cid].issuerName = _issuerName;\r\n        Certificates[_cid].program = _program;\r\n        Certificates[_cid].timestamp = block.timestamp;\r\n        Certificates[_cid].exist = true;\r\n    }\r\n\r\n    //Get Certificate details from cid\r\n    function getCertificate(string memory cid) public view returns (Certificate memory) {\r\n        bytes32 _cid=keccak256(abi.encodePacked(cid));\r\n        require(Certificates[_cid].exist == true);\r\n        return Certificates[_cid];\r\n    }\r\n\r\n    //checks if the certificate with given cid exists or not\r\n    function check(string memory cid) public view returns(bool) {\r\n        bytes32 _cid=keccak256(abi.encodePacked(cid));\r\n        return Certificates[_cid].exist;\r\n\r\n    }\r\n}",
  "sourcePath": "E:\\CSIT\\Certy\\certy\\contracts\\Certy.sol",
  "compiler": {
    "name": "solc",
    "version": "0.8.17+commit.8df45f5f.Emscripten.clang"
  },
  "schemaVersion": "3.4.10",
  "updatedAt": "2023-01-27T07:31:48.813Z",
  "networkType": "ethereum",
  "devdoc": {
    "kind": "dev",
    "methods": {},
    "version": 1
  },
  "userdoc": {
    "kind": "user",
    "methods": {},
    "version": 1
  }
}