{
  "contractName": "Certy",
  "abi": [
    {
      "inputs": [],
      "stateMutability": "nonpayable",
      "type": "constructor"
    },
    {
      "inputs": [
        {
          "internalType": "bytes32",
          "name": "",
          "type": "bytes32"
        }
      ],
      "name": "Certificates",
      "outputs": [
        {
          "internalType": "bytes32",
          "name": "cid",
          "type": "bytes32"
        },
        {
          "internalType": "string",
          "name": "holderName",
          "type": "string"
        },
        {
          "internalType": "string",
          "name": "issuerName",
          "type": "string"
        },
        {
          "internalType": "uint256",
          "name": "timestamp",
          "type": "uint256"
        },
        {
          "internalType": "string",
          "name": "program",
          "type": "string"
        },
        {
          "internalType": "bool",
          "name": "exist",
          "type": "bool"
        }
      ],
      "stateMutability": "view",
      "type": "function",
      "constant": true
    },
    {
      "inputs": [
        {
          "internalType": "address",
          "name": "_issuerAddress",
          "type": "address"
        },
        {
          "internalType": "string",
          "name": "_issuerId",
          "type": "string"
        }
      ],
      "name": "addIssuer",
      "outputs": [],
      "stateMutability": "nonpayable",
      "type": "function"
    },
    {
      "inputs": [
        {
          "internalType": "string",
          "name": "cid",
          "type": "string"
        },
        {
          "internalType": "string",
          "name": "_holderName",
          "type": "string"
        },
        {
          "internalType": "string",
          "name": "_issuerName",
          "type": "string"
        },
        {
          "internalType": "string",
          "name": "_program",
          "type": "string"
        }
      ],
      "name": "storeCertificate",
      "outputs": [],
      "stateMutability": "nonpayable",
      "type": "function"
    },
    {
      "inputs": [
        {
          "internalType": "string",
          "name": "cid",
          "type": "string"
        }
      ],
      "name": "getCertificate",
      "outputs": [
        {
          "components": [
            {
              "internalType": "bytes32",
              "name": "cid",
              "type": "bytes32"
            },
            {
              "internalType": "string",
              "name": "holderName",
              "type": "string"
            },
            {
              "internalType": "string",
              "name": "issuerName",
              "type": "string"
            },
            {
              "internalType": "uint256",
              "name": "timestamp",
              "type": "uint256"
            },
            {
              "internalType": "string",
              "name": "program",
              "type": "string"
            },
            {
              "internalType": "bool",
              "name": "exist",
              "type": "bool"
            }
          ],
          "internalType": "struct Certy.Certificate",
          "name": "",
          "type": "tuple"
        }
      ],
      "stateMutability": "view",
      "type": "function",
      "constant": true
    },
    {
      "inputs": [
        {
          "internalType": "string",
          "name": "cid",
          "type": "string"
        }
      ],
      "name": "check",
      "outputs": [
        {
          "internalType": "bool",
          "name": "",
          "type": "bool"
        }
      ],
      "stateMutability": "view",
      "type": "function",
      "constant": true
    }
  ],
  "bytecode": "0x608060405234801561001057600080fd5b5060018060003373ffffffffffffffffffffffffffffffffffffffff1673ffffffffffffffffffffffffffffffffffffffff16815260200190815260200160002060006101000a81548160ff021916908315150217905550611490806100776000396000f3fe608060405234801561001057600080fd5b50600436106100575760003560e01c8063307d40ab1461005c5780638fc0859a14610078578063b6f921ad14610094578063c0bec9a9146100c4578063ed0f2e75146100f9575b600080fd5b61007660048036038101906100719190610b25565b610129565b005b610092600480360381019061008d9190610c5a565b610325565b005b6100ae60048036038101906100a99190610cb6565b6104e8565b6040516100bb9190610d1a565b60405180910390f35b6100de60048036038101906100d99190610d6b565b61053f565b6040516100f096959493929190610e3f565b60405180910390f35b610113600480360381019061010e9190610cb6565b610720565b6040516101209190610fc3565b60405180910390f35b60011515600260003373ffffffffffffffffffffffffffffffffffffffff1673ffffffffffffffffffffffffffffffffffffffff16815260200190815260200160002060020160009054906101000a900460ff161515146101bf576040517f08c379a00000000000000000000000000000000000000000000000000000000081526004016101b690611031565b60405180910390fd5b6000846040516020016101d2919061108d565b6040516020818303038152906040528051906020012090506000151560008083815260200190815260200160002060050160009054906101000a900460ff16151514610253576040517f08c379a000000000000000000000000000000000000000000000000000000000815260040161024a906110f0565b60405180910390fd5b806000808381526020019081526020016000206000018190555083600080838152602001908152602001600020600101908161028f919061131c565b508260008083815260200190815260200160002060020190816102b2919061131c565b508160008083815260200190815260200160002060040190816102d5919061131c565b504260008083815260200190815260200160002060030181905550600160008083815260200190815260200160002060050160006101000a81548160ff0219169083151502179055505050505050565b60011515600160003373ffffffffffffffffffffffffffffffffffffffff1673ffffffffffffffffffffffffffffffffffffffff16815260200190815260200160002060009054906101000a900460ff161515146103b8576040517f08c379a00000000000000000000000000000000000000000000000000000000081526004016103af9061143a565b60405180910390fd5b81600260008473ffffffffffffffffffffffffffffffffffffffff1673ffffffffffffffffffffffffffffffffffffffff16815260200190815260200160002060000160006101000a81548173ffffffffffffffffffffffffffffffffffffffff021916908373ffffffffffffffffffffffffffffffffffffffff16021790555080600260008473ffffffffffffffffffffffffffffffffffffffff1673ffffffffffffffffffffffffffffffffffffffff1681526020019081526020016000206001019081610488919061131c565b506001600260008473ffffffffffffffffffffffffffffffffffffffff1673ffffffffffffffffffffffffffffffffffffffff16815260200190815260200160002060020160006101000a81548160ff0219169083151502179055505050565b600080826040516020016104fc919061108d565b60405160208183030381529060405280519060200120905060008082815260200190815260200160002060050160009054906101000a900460ff16915050919050565b60006020528060005260406000206000915090508060000154908060010180546105689061113f565b80601f01602080910402602001604051908101604052809291908181526020018280546105949061113f565b80156105e15780601f106105b6576101008083540402835291602001916105e1565b820191906000526020600020905b8154815290600101906020018083116105c457829003601f168201915b5050505050908060020180546105f69061113f565b80601f01602080910402602001604051908101604052809291908181526020018280546106229061113f565b801561066f5780601f106106445761010080835404028352916020019161066f565b820191906000526020600020905b81548152906001019060200180831161065257829003601f168201915b50505050509080600301549080600401805461068a9061113f565b80601f01602080910402602001604051908101604052809291908181526020018280546106b69061113f565b80156107035780601f106106d857610100808354040283529160200191610703565b820191906000526020600020905b8154815290600101906020018083116106e657829003601f168201915b5050505050908060050160009054906101000a900460ff16905086565b610728610990565b60008260405160200161073b919061108d565b6040516020818303038152906040528051906020012090506001151560008083815260200190815260200160002060050160009054906101000a900460ff1615151461078657600080fd5b6000808281526020019081526020016000206040518060c0016040529081600082015481526020016001820180546107bd9061113f565b80601f01602080910402602001604051908101604052809291908181526020018280546107e99061113f565b80156108365780601f1061080b57610100808354040283529160200191610836565b820191906000526020600020905b81548152906001019060200180831161081957829003601f168201915b5050505050815260200160028201805461084f9061113f565b80601f016020809104026020016040519081016040528092919081815260200182805461087b9061113f565b80156108c85780601f1061089d576101008083540402835291602001916108c8565b820191906000526020600020905b8154815290600101906020018083116108ab57829003601f168201915b50505050508152602001600382015481526020016004820180546108eb9061113f565b80601f01602080910402602001604051908101604052809291908181526020018280546109179061113f565b80156109645780601f1061093957610100808354040283529160200191610964565b820191906000526020600020905b81548152906001019060200180831161094757829003601f168201915b505050505081526020016005820160009054906101000a900460ff161515151581525050915050919050565b6040518060c0016040528060008019168152602001606081526020016060815260200160008152602001606081526020016000151581525090565b6000604051905090565b600080fd5b600080fd5b600080fd5b600080fd5b6000601f19601f8301169050919050565b7f4e487b7100000000000000000000000000000000000000000000000000000000600052604160045260246000fd5b610a32826109e9565b810181811067ffffffffffffffff82111715610a5157610a506109fa565b5b80604052505050565b6000610a646109cb565b9050610a708282610a29565b919050565b600067ffffffffffffffff821115610a9057610a8f6109fa565b5b610a99826109e9565b9050602081019050919050565b82818337600083830152505050565b6000610ac8610ac384610a75565b610a5a565b905082815260208101848484011115610ae457610ae36109e4565b5b610aef848285610aa6565b509392505050565b600082601f830112610b0c57610b0b6109df565b5b8135610b1c848260208601610ab5565b91505092915050565b60008060008060808587031215610b3f57610b3e6109d5565b5b600085013567ffffffffffffffff811115610b5d57610b5c6109da565b5b610b6987828801610af7565b945050602085013567ffffffffffffffff811115610b8a57610b896109da565b5b610b9687828801610af7565b935050604085013567ffffffffffffffff811115610bb757610bb66109da565b5b610bc387828801610af7565b925050606085013567ffffffffffffffff811115610be457610be36109da565b5b610bf087828801610af7565b91505092959194509250565b600073ffffffffffffffffffffffffffffffffffffffff82169050919050565b6000610c2782610bfc565b9050919050565b610c3781610c1c565b8114610c4257600080fd5b50565b600081359050610c5481610c2e565b92915050565b60008060408385031215610c7157610c706109d5565b5b6000610c7f85828601610c45565b925050602083013567ffffffffffffffff811115610ca057610c9f6109da565b5b610cac85828601610af7565b9150509250929050565b600060208284031215610ccc57610ccb6109d5565b5b600082013567ffffffffffffffff811115610cea57610ce96109da565b5b610cf684828501610af7565b91505092915050565b60008115159050919050565b610d1481610cff565b82525050565b6000602082019050610d2f6000830184610d0b565b92915050565b6000819050919050565b610d4881610d35565b8114610d5357600080fd5b50565b600081359050610d6581610d3f565b92915050565b600060208284031215610d8157610d806109d5565b5b6000610d8f84828501610d56565b91505092915050565b610da181610d35565b82525050565b600081519050919050565b600082825260208201905092915050565b60005b83811015610de1578082015181840152602081019050610dc6565b60008484015250505050565b6000610df882610da7565b610e028185610db2565b9350610e12818560208601610dc3565b610e1b816109e9565b840191505092915050565b6000819050919050565b610e3981610e26565b82525050565b600060c082019050610e546000830189610d98565b8181036020830152610e668188610ded565b90508181036040830152610e7a8187610ded565b9050610e896060830186610e30565b8181036080830152610e9b8185610ded565b9050610eaa60a0830184610d0b565b979650505050505050565b610ebe81610d35565b82525050565b600082825260208201905092915050565b6000610ee082610da7565b610eea8185610ec4565b9350610efa818560208601610dc3565b610f03816109e9565b840191505092915050565b610f1781610e26565b82525050565b610f2681610cff565b82525050565b600060c083016000830151610f446000860182610eb5565b5060208301518482036020860152610f5c8282610ed5565b91505060408301518482036040860152610f768282610ed5565b9150506060830151610f8b6060860182610f0e565b5060808301518482036080860152610fa38282610ed5565b91505060a0830151610fb860a0860182610f1d565b508091505092915050565b60006020820190508181036000830152610fdd8184610f2c565b905092915050565b7f4e6f742049737375657200000000000000000000000000000000000000000000600082015250565b600061101b600a83610db2565b915061102682610fe5565b602082019050919050565b6000602082019050818103600083015261104a8161100e565b9050919050565b600081905092915050565b600061106782610da7565b6110718185611051565b9350611081818560208601610dc3565b80840191505092915050565b6000611099828461105c565b915081905092915050565b7f54686520436572746966696361746520616c7265616479206578697374732e00600082015250565b60006110da601f83610db2565b91506110e5826110a4565b602082019050919050565b60006020820190508181036000830152611109816110cd565b9050919050565b7f4e487b7100000000000000000000000000000000000000000000000000000000600052602260045260246000fd5b6000600282049050600182168061115757607f821691505b60208210810361116a57611169611110565b5b50919050565b60008190508160005260206000209050919050565b60006020601f8301049050919050565b600082821b905092915050565b6000600883026111d27fffffffffffffffffffffffffffffffffffffffffffffffffffffffffffffffff82611195565b6111dc8683611195565b95508019841693508086168417925050509392505050565b6000819050919050565b600061121961121461120f84610e26565b6111f4565b610e26565b9050919050565b6000819050919050565b611233836111fe565b61124761123f82611220565b8484546111a2565b825550505050565b600090565b61125c61124f565b61126781848461122a565b505050565b5b8181101561128b57611280600082611254565b60018101905061126d565b5050565b601f8211156112d0576112a181611170565b6112aa84611185565b810160208510156112b9578190505b6112cd6112c585611185565b83018261126c565b50505b505050565b600082821c905092915050565b60006112f3600019846008026112d5565b1980831691505092915050565b600061130c83836112e2565b9150826002028217905092915050565b61132582610da7565b67ffffffffffffffff81111561133e5761133d6109fa565b5b611348825461113f565b61135382828561128f565b600060209050601f8311600181146113865760008415611374578287015190505b61137e8582611300565b8655506113e6565b601f19841661139486611170565b60005b828110156113bc57848901518255600182019150602085019450602081019050611397565b868310156113d957848901516113d5601f8916826112e2565b8355505b6001600288020188555050505b505050505050565b7f4e6f742041646d696e0000000000000000000000000000000000000000000000600082015250565b6000611424600983610db2565b915061142f826113ee565b602082019050919050565b6000602082019050818103600083015261145381611417565b905091905056fea264697066735822122052a98c426c7830c6f5fa77b3ac1a5a46e8a37c329cc87990c14e0e5651eb6d8364736f6c63430008120033",
  "immutableReferences": {},
  "source": "// SPDX-License-Identifier: GPL-3.0\r\npragma solidity ^0.8.0;\r\n\r\ncontract Certy {\r\n    constructor() {\r\n        admins[msg.sender] = true;\r\n    }\r\n\r\n    struct Issuer {\r\n        address issuerAddress;\r\n        string id;\r\n        bool exists;\r\n    }\r\n\r\n    struct Certificate {\r\n        bytes32 cid;\r\n        string holderName;\r\n        string issuerName;\r\n        uint timestamp;\r\n        string program;\r\n        bool exist;\r\n    }\r\n\r\n    //mapping\r\n    mapping(bytes32 => Certificate) public Certificates;\r\n    mapping(address => bool) admins;\r\n    mapping(address => Issuer) issuers;\r\n\r\n    //modifiers\r\n    modifier onlyAdmin() {\r\n        require(admins[msg.sender] == true, \"Not Admin\");\r\n        _;\r\n    }\r\n    modifier onlyIssuer() {\r\n        require(issuers[msg.sender].exists == true, \"Not Issuer\");\r\n        _;\r\n    }\r\n\r\n    //function\r\n\r\n    //function to add an issuer\r\n    function addIssuer(\r\n        address _issuerAddress,\r\n        string memory _issuerId\r\n    ) public onlyAdmin {\r\n        issuers[_issuerAddress].issuerAddress = _issuerAddress;\r\n        issuers[_issuerAddress].id = _issuerId;\r\n        issuers[_issuerAddress].exists = true;\r\n    }\r\n\r\n    //Stores Certificate CID and details.\r\n    function storeCertificate(\r\n        string memory cid,\r\n        string memory _holderName,\r\n        string memory _issuerName,\r\n        string memory _program\r\n    ) public onlyIssuer {\r\n        bytes32 _cid = keccak256(abi.encodePacked(cid));\r\n        require(\r\n            Certificates[_cid].exist == false,\r\n            \"The Certificate already exists.\"\r\n        );\r\n        Certificates[_cid].cid = _cid;\r\n        Certificates[_cid].holderName = _holderName;\r\n        Certificates[_cid].issuerName = _issuerName;\r\n        Certificates[_cid].program = _program;\r\n        Certificates[_cid].timestamp = block.timestamp;\r\n        Certificates[_cid].exist = true;\r\n    }\r\n\r\n    //Get Certificate details from cid\r\n    function getCertificate(\r\n        string memory cid\r\n    ) public view returns (Certificate memory) {\r\n        bytes32 _cid = keccak256(abi.encodePacked(cid));\r\n        require(Certificates[_cid].exist == true);\r\n        return Certificates[_cid];\r\n    }\r\n\r\n    //checks if the certificate with given cid exists or not\r\n    function check(string memory cid) public view returns (bool) {\r\n        bytes32 _cid = keccak256(abi.encodePacked(cid));\r\n        return Certificates[_cid].exist;\r\n    }\r\n}\r\n",
  "sourcePath": "D:\\niischal\\certy\\contracts\\Certy.sol",
  "compiler": {
    "name": "solc",
    "version": "0.8.18+commit.87f61d96.Emscripten.clang"
  },
  "schemaVersion": "3.4.10",
  "updatedAt": "2023-02-09T16:06:49.746Z",
  "networkType": "ethereum",
  "devdoc": {
    "kind": "dev",
    "methods": {},
    "version": 1
  },
  "userdoc": {
    "kind": "user",
    "methods": {},
    "version": 1
  }
}