{
  "contractName": "Certy",
  "abi": [
    {
      "inputs": [],
      "stateMutability": "nonpayable",
      "type": "constructor"
    },
    {
      "inputs": [
        {
          "internalType": "bytes32",
          "name": "",
          "type": "bytes32"
        }
      ],
      "name": "Certificates",
      "outputs": [
        {
          "internalType": "bytes32",
          "name": "cid",
          "type": "bytes32"
        },
        {
          "internalType": "string",
          "name": "holderName",
          "type": "string"
        },
        {
          "internalType": "string",
          "name": "issuerName",
          "type": "string"
        },
        {
          "internalType": "string",
          "name": "timestamp",
          "type": "string"
        },
        {
          "internalType": "string",
          "name": "program",
          "type": "string"
        },
        {
          "internalType": "bool",
          "name": "exist",
          "type": "bool"
        }
      ],
      "stateMutability": "view",
      "type": "function",
      "constant": true
    },
    {
      "inputs": [
        {
          "internalType": "address",
          "name": "_issuerAddress",
          "type": "address"
        },
        {
          "internalType": "string",
          "name": "_issuerId",
          "type": "string"
        }
      ],
      "name": "addIssuer",
      "outputs": [],
      "stateMutability": "nonpayable",
      "type": "function"
    },
    {
      "inputs": [
        {
          "internalType": "string",
          "name": "cid",
          "type": "string"
        },
        {
          "internalType": "string",
          "name": "_holderName",
          "type": "string"
        },
        {
          "internalType": "string",
          "name": "_issuerName",
          "type": "string"
        },
        {
          "internalType": "string",
          "name": "_program",
          "type": "string"
        },
        {
          "internalType": "string",
          "name": "_issuedDate",
          "type": "string"
        }
      ],
      "name": "storeCertificate",
      "outputs": [],
      "stateMutability": "nonpayable",
      "type": "function"
    },
    {
      "inputs": [
        {
          "internalType": "string",
          "name": "cid",
          "type": "string"
        }
      ],
      "name": "getCertificate",
      "outputs": [
        {
          "components": [
            {
              "internalType": "bytes32",
              "name": "cid",
              "type": "bytes32"
            },
            {
              "internalType": "string",
              "name": "holderName",
              "type": "string"
            },
            {
              "internalType": "string",
              "name": "issuerName",
              "type": "string"
            },
            {
              "internalType": "string",
              "name": "timestamp",
              "type": "string"
            },
            {
              "internalType": "string",
              "name": "program",
              "type": "string"
            },
            {
              "internalType": "bool",
              "name": "exist",
              "type": "bool"
            }
          ],
          "internalType": "struct Certy.Certificate",
          "name": "",
          "type": "tuple"
        }
      ],
      "stateMutability": "view",
      "type": "function",
      "constant": true
    },
    {
      "inputs": [
        {
          "internalType": "string",
          "name": "cid",
          "type": "string"
        }
      ],
      "name": "check",
      "outputs": [
        {
          "internalType": "bool",
          "name": "",
          "type": "bool"
        }
      ],
      "stateMutability": "view",
      "type": "function",
      "constant": true
    },
    {
      "inputs": [
        {
          "internalType": "address",
          "name": "_issuerAddress",
          "type": "address"
        }
      ],
      "name": "returnIssuers",
      "outputs": [
        {
          "components": [
            {
              "internalType": "address",
              "name": "issuerAddress",
              "type": "address"
            },
            {
              "internalType": "string",
              "name": "id",
              "type": "string"
            },
            {
              "internalType": "bool",
              "name": "exists",
              "type": "bool"
            }
          ],
          "internalType": "struct Certy.Issuer",
          "name": "",
          "type": "tuple"
        }
      ],
      "stateMutability": "view",
      "type": "function",
      "constant": true
    },
    {
      "inputs": [],
      "name": "returnAddress",
      "outputs": [
        {
          "internalType": "address",
          "name": "",
          "type": "address"
        }
      ],
      "stateMutability": "view",
      "type": "function",
      "constant": true
    }
  ],
  "bytecode": "0x608060405234801561001057600080fd5b5060018060003373ffffffffffffffffffffffffffffffffffffffff1673ffffffffffffffffffffffffffffffffffffffff16815260200190815260200160002060006101000a81548160ff021916908315150217905550611880806100776000396000f3fe608060405234801561001057600080fd5b506004361061007d5760003560e01c8063b6f921ad1161005b578063b6f921ad146100d8578063c0bec9a914610108578063dfa035ed1461013d578063ed0f2e751461016d5761007d565b80637970acf5146100825780638fc0859a1461009e578063943640c3146100ba575b600080fd5b61009c60048036038101906100979190610e1d565b61019d565b005b6100b860048036038101906100b39190610f82565b61033a565b005b6100c26104fd565b6040516100cf9190610fed565b60405180910390f35b6100f260048036038101906100ed9190611008565b610505565b6040516100ff919061106c565b60405180910390f35b610122600480360381019061011d91906110bd565b61055c565b60405161013496959493929190611178565b60405180910390f35b610157600480360381019061015291906111f5565b6107c5565b60405161016491906112da565b60405180910390f35b61018760048036038101906101829190611008565b610921565b60405161019491906113a9565b60405180910390f35b60011515600260003373ffffffffffffffffffffffffffffffffffffffff1673ffffffffffffffffffffffffffffffffffffffff16815260200190815260200160002060020160009054906101000a900460ff16151514610233576040517f08c379a000000000000000000000000000000000000000000000000000000000815260040161022a90611417565b60405180910390fd5b6000856040516020016102469190611473565b604051602081830303815290604052805190602001209050806000808381526020019081526020016000206000018190555084600080838152602001908152602001600020600101908161029a91906116a0565b508360008083815260200190815260200160002060020190816102bd91906116a0565b508260008083815260200190815260200160002060040190816102e091906116a0565b5081600080838152602001908152602001600020600301908161030391906116a0565b50600160008083815260200190815260200160002060050160006101000a81548160ff021916908315150217905550505050505050565b60011515600160003373ffffffffffffffffffffffffffffffffffffffff1673ffffffffffffffffffffffffffffffffffffffff16815260200190815260200160002060009054906101000a900460ff161515146103cd576040517f08c379a00000000000000000000000000000000000000000000000000000000081526004016103c4906117be565b60405180910390fd5b81600260008473ffffffffffffffffffffffffffffffffffffffff1673ffffffffffffffffffffffffffffffffffffffff16815260200190815260200160002060000160006101000a81548173ffffffffffffffffffffffffffffffffffffffff021916908373ffffffffffffffffffffffffffffffffffffffff16021790555080600260008473ffffffffffffffffffffffffffffffffffffffff1673ffffffffffffffffffffffffffffffffffffffff168152602001908152602001600020600101908161049d91906116a0565b506001600260008473ffffffffffffffffffffffffffffffffffffffff1673ffffffffffffffffffffffffffffffffffffffff16815260200190815260200160002060020160006101000a81548160ff0219169083151502179055505050565b600033905090565b600080826040516020016105199190611473565b60405160208183030381529060405280519060200120905060008082815260200190815260200160002060050160009054906101000a900460ff16915050919050565b6000602052806000526040600020600091509050806000015490806001018054610585906114b9565b80601f01602080910402602001604051908101604052809291908181526020018280546105b1906114b9565b80156105fe5780601f106105d3576101008083540402835291602001916105fe565b820191906000526020600020905b8154815290600101906020018083116105e157829003601f168201915b505050505090806002018054610613906114b9565b80601f016020809104026020016040519081016040528092919081815260200182805461063f906114b9565b801561068c5780601f106106615761010080835404028352916020019161068c565b820191906000526020600020905b81548152906001019060200180831161066f57829003601f168201915b5050505050908060030180546106a1906114b9565b80601f01602080910402602001604051908101604052809291908181526020018280546106cd906114b9565b801561071a5780601f106106ef5761010080835404028352916020019161071a565b820191906000526020600020905b8154815290600101906020018083116106fd57829003601f168201915b50505050509080600401805461072f906114b9565b80601f016020809104026020016040519081016040528092919081815260200182805461075b906114b9565b80156107a85780601f1061077d576101008083540402835291602001916107a8565b820191906000526020600020905b81548152906001019060200180831161078b57829003601f168201915b5050505050908060050160009054906101000a900460ff16905086565b6107cd610c4f565b600260008373ffffffffffffffffffffffffffffffffffffffff1673ffffffffffffffffffffffffffffffffffffffff1681526020019081526020016000206040518060600160405290816000820160009054906101000a900473ffffffffffffffffffffffffffffffffffffffff1673ffffffffffffffffffffffffffffffffffffffff1673ffffffffffffffffffffffffffffffffffffffff16815260200160018201805461087d906114b9565b80601f01602080910402602001604051908101604052809291908181526020018280546108a9906114b9565b80156108f65780601f106108cb576101008083540402835291602001916108f6565b820191906000526020600020905b8154815290600101906020018083116108d957829003601f168201915b505050505081526020016002820160009054906101000a900460ff1615151515815250509050919050565b610929610c88565b60008260405160200161093c9190611473565b6040516020818303038152906040528051906020012090506001151560008083815260200190815260200160002060050160009054906101000a900460ff161515146109bd576040517f08c379a00000000000000000000000000000000000000000000000000000000081526004016109b49061182a565b60405180910390fd5b6000808281526020019081526020016000206040518060c0016040529081600082015481526020016001820180546109f4906114b9565b80601f0160208091040260200160405190810160405280929190818152602001828054610a20906114b9565b8015610a6d5780601f10610a4257610100808354040283529160200191610a6d565b820191906000526020600020905b815481529060010190602001808311610a5057829003601f168201915b50505050508152602001600282018054610a86906114b9565b80601f0160208091040260200160405190810160405280929190818152602001828054610ab2906114b9565b8015610aff5780601f10610ad457610100808354040283529160200191610aff565b820191906000526020600020905b815481529060010190602001808311610ae257829003601f168201915b50505050508152602001600382018054610b18906114b9565b80601f0160208091040260200160405190810160405280929190818152602001828054610b44906114b9565b8015610b915780601f10610b6657610100808354040283529160200191610b91565b820191906000526020600020905b815481529060010190602001808311610b7457829003601f168201915b50505050508152602001600482018054610baa906114b9565b80601f0160208091040260200160405190810160405280929190818152602001828054610bd6906114b9565b8015610c235780601f10610bf857610100808354040283529160200191610c23565b820191906000526020600020905b815481529060010190602001808311610c0657829003601f168201915b505050505081526020016005820160009054906101000a900460ff161515151581525050915050919050565b6040518060600160405280600073ffffffffffffffffffffffffffffffffffffffff168152602001606081526020016000151581525090565b6040518060c0016040528060008019168152602001606081526020016060815260200160608152602001606081526020016000151581525090565b6000604051905090565b600080fd5b600080fd5b600080fd5b600080fd5b6000601f19601f8301169050919050565b7f4e487b7100000000000000000000000000000000000000000000000000000000600052604160045260246000fd5b610d2a82610ce1565b810181811067ffffffffffffffff82111715610d4957610d48610cf2565b5b80604052505050565b6000610d5c610cc3565b9050610d688282610d21565b919050565b600067ffffffffffffffff821115610d8857610d87610cf2565b5b610d9182610ce1565b9050602081019050919050565b82818337600083830152505050565b6000610dc0610dbb84610d6d565b610d52565b905082815260208101848484011115610ddc57610ddb610cdc565b5b610de7848285610d9e565b509392505050565b600082601f830112610e0457610e03610cd7565b5b8135610e14848260208601610dad565b91505092915050565b600080600080600060a08688031215610e3957610e38610ccd565b5b600086013567ffffffffffffffff811115610e5757610e56610cd2565b5b610e6388828901610def565b955050602086013567ffffffffffffffff811115610e8457610e83610cd2565b5b610e9088828901610def565b945050604086013567ffffffffffffffff811115610eb157610eb0610cd2565b5b610ebd88828901610def565b935050606086013567ffffffffffffffff811115610ede57610edd610cd2565b5b610eea88828901610def565b925050608086013567ffffffffffffffff811115610f0b57610f0a610cd2565b5b610f1788828901610def565b9150509295509295909350565b600073ffffffffffffffffffffffffffffffffffffffff82169050919050565b6000610f4f82610f24565b9050919050565b610f5f81610f44565b8114610f6a57600080fd5b50565b600081359050610f7c81610f56565b92915050565b60008060408385031215610f9957610f98610ccd565b5b6000610fa785828601610f6d565b925050602083013567ffffffffffffffff811115610fc857610fc7610cd2565b5b610fd485828601610def565b9150509250929050565b610fe781610f44565b82525050565b60006020820190506110026000830184610fde565b92915050565b60006020828403121561101e5761101d610ccd565b5b600082013567ffffffffffffffff81111561103c5761103b610cd2565b5b61104884828501610def565b91505092915050565b60008115159050919050565b61106681611051565b82525050565b6000602082019050611081600083018461105d565b92915050565b6000819050919050565b61109a81611087565b81146110a557600080fd5b50565b6000813590506110b781611091565b92915050565b6000602082840312156110d3576110d2610ccd565b5b60006110e1848285016110a8565b91505092915050565b6110f381611087565b82525050565b600081519050919050565b600082825260208201905092915050565b60005b83811015611133578082015181840152602081019050611118565b60008484015250505050565b600061114a826110f9565b6111548185611104565b9350611164818560208601611115565b61116d81610ce1565b840191505092915050565b600060c08201905061118d60008301896110ea565b818103602083015261119f818861113f565b905081810360408301526111b3818761113f565b905081810360608301526111c7818661113f565b905081810360808301526111db818561113f565b90506111ea60a083018461105d565b979650505050505050565b60006020828403121561120b5761120a610ccd565b5b600061121984828501610f6d565b91505092915050565b61122b81610f44565b82525050565b600082825260208201905092915050565b600061124d826110f9565b6112578185611231565b9350611267818560208601611115565b61127081610ce1565b840191505092915050565b61128481611051565b82525050565b60006060830160008301516112a26000860182611222565b50602083015184820360208601526112ba8282611242565b91505060408301516112cf604086018261127b565b508091505092915050565b600060208201905081810360008301526112f4818461128a565b905092915050565b61130581611087565b82525050565b600060c08301600083015161132360008601826112fc565b506020830151848203602086015261133b8282611242565b915050604083015184820360408601526113558282611242565b9150506060830151848203606086015261136f8282611242565b915050608083015184820360808601526113898282611242565b91505060a083015161139e60a086018261127b565b508091505092915050565b600060208201905081810360008301526113c3818461130b565b905092915050565b7f4e6f742049737375657200000000000000000000000000000000000000000000600082015250565b6000611401600a83611104565b915061140c826113cb565b602082019050919050565b60006020820190508181036000830152611430816113f4565b9050919050565b600081905092915050565b600061144d826110f9565b6114578185611437565b9350611467818560208601611115565b80840191505092915050565b600061147f8284611442565b915081905092915050565b7f4e487b7100000000000000000000000000000000000000000000000000000000600052602260045260246000fd5b600060028204905060018216806114d157607f821691505b6020821081036114e4576114e361148a565b5b50919050565b60008190508160005260206000209050919050565b60006020601f8301049050919050565b600082821b905092915050565b60006008830261154c7fffffffffffffffffffffffffffffffffffffffffffffffffffffffffffffffff8261150f565b611556868361150f565b95508019841693508086168417925050509392505050565b6000819050919050565b6000819050919050565b600061159d6115986115938461156e565b611578565b61156e565b9050919050565b6000819050919050565b6115b783611582565b6115cb6115c3826115a4565b84845461151c565b825550505050565b600090565b6115e06115d3565b6115eb8184846115ae565b505050565b5b8181101561160f576116046000826115d8565b6001810190506115f1565b5050565b601f82111561165457611625816114ea565b61162e846114ff565b8101602085101561163d578190505b611651611649856114ff565b8301826115f0565b50505b505050565b600082821c905092915050565b600061167760001984600802611659565b1980831691505092915050565b60006116908383611666565b9150826002028217905092915050565b6116a9826110f9565b67ffffffffffffffff8111156116c2576116c1610cf2565b5b6116cc82546114b9565b6116d7828285611613565b600060209050601f83116001811461170a57600084156116f8578287015190505b6117028582611684565b86555061176a565b601f198416611718866114ea565b60005b828110156117405784890151825560018201915060208501945060208101905061171b565b8683101561175d5784890151611759601f891682611666565b8355505b6001600288020188555050505b505050505050565b7f4e6f742041646d696e0000000000000000000000000000000000000000000000600082015250565b60006117a8600983611104565b91506117b382611772565b602082019050919050565b600060208201905081810360008301526117d78161179b565b9050919050565b7f436572746966696361746520446f206e6f742045786973747300000000000000600082015250565b6000611814601983611104565b915061181f826117de565b602082019050919050565b6000602082019050818103600083015261184381611807565b905091905056fea264697066735822122075fc82a3b154249ba468b5c0d65d2a84d0ca39793fefd04ed6445406398d0d7a64736f6c63430008120033",
  "immutableReferences": {},
  "source": "// SPDX-License-Identifier: GPL-3.0\r\npragma solidity ^0.8.0;\r\n\r\ncontract Certy {\r\n    constructor() {\r\n        admins[msg.sender] = true;\r\n    }\r\n\r\n    struct Issuer {\r\n        address issuerAddress;\r\n        string id;\r\n        bool exists;\r\n    }\r\n\r\n    struct Certificate {\r\n        bytes32 cid;\r\n        string holderName;\r\n        string issuerName;\r\n        string timestamp;\r\n        string program;\r\n        bool exist;\r\n    }\r\n\r\n    //mapping\r\n    mapping(bytes32 => Certificate) public Certificates;\r\n    mapping(address => bool) admins;\r\n    mapping(address => Issuer) issuers;\r\n\r\n    //modifiers\r\n    modifier onlyAdmin() {\r\n        require(admins[msg.sender] == true, \"Not Admin\");\r\n        _;\r\n    }\r\n    modifier onlyIssuer() {\r\n        require(issuers[msg.sender].exists == true, \"Not Issuer\");\r\n        _;\r\n    }\r\n\r\n    //function\r\n\r\n    //function to add an issuer\r\n    function addIssuer(\r\n        address _issuerAddress,\r\n        string memory _issuerId\r\n    ) public onlyAdmin {\r\n        issuers[_issuerAddress].issuerAddress = _issuerAddress;\r\n        issuers[_issuerAddress].id = _issuerId;\r\n        issuers[_issuerAddress].exists = true;\r\n    }\r\n\r\n    //Stores Certificate CID and details.\r\n    function storeCertificate(\r\n        string memory cid,\r\n        string memory _holderName,\r\n        string memory _issuerName,\r\n        string memory _program,\r\n        string memory _issuedDate\r\n    ) public onlyIssuer {\r\n        bytes32 _cid = keccak256(abi.encodePacked(cid));\r\n        // require(\r\n        //     Certificates[_cid].exist == false,\r\n        //     \"The Certificate already exists.\"\r\n        // );\r\n        Certificates[_cid].cid = _cid;\r\n        Certificates[_cid].holderName = _holderName;\r\n        Certificates[_cid].issuerName = _issuerName;\r\n        Certificates[_cid].program = _program;\r\n        Certificates[_cid].timestamp = _issuedDate;\r\n        Certificates[_cid].exist = true;\r\n    }\r\n\r\n    //Get Certificate details from cid\r\n    function getCertificate(\r\n        string memory cid\r\n    ) public view returns (Certificate memory) {\r\n        bytes32 _cid = keccak256(abi.encodePacked(cid));\r\n        require(Certificates[_cid].exist == true, \"Certificate Do not Exists\");\r\n        return Certificates[_cid];\r\n    }\r\n\r\n    //checks if the certificate with given cid exists or not\r\n    function check(string memory cid) public view returns (bool) {\r\n        bytes32 _cid = keccak256(abi.encodePacked(cid));\r\n        return Certificates[_cid].exist;\r\n    }\r\n\r\n    //Only for Test\r\n\r\n    function returnIssuers(\r\n        address _issuerAddress\r\n    ) public view returns (Issuer memory) {\r\n        return issuers[_issuerAddress];\r\n    }\r\n\r\n    function returnAddress() public view returns (address) {\r\n        return msg.sender;\r\n    }\r\n}\r\n",
  "sourcePath": "D:\\niischal\\certy\\client\\contracts\\Certy.sol",
  "compiler": {
    "name": "solc",
    "version": "0.8.18+commit.87f61d96.Emscripten.clang"
  },
  "schemaVersion": "3.4.10",
  "updatedAt": "2023-02-19T04:00:09.170Z",
  "networkType": "ethereum",
  "devdoc": {
    "kind": "dev",
    "methods": {},
    "version": 1
  },
  "userdoc": {
    "kind": "user",
    "methods": {},
    "version": 1
  }
}